S121FB70810D26047F00ED39810A261B8620B7C100B7C101B7C102B7C103B7C104B78B
S121FB8EC105B7C106B7C107393696ED2A0232394A2B174A2B1A4A2B1D4A2B204A2B52
S121FBAC234A2B264A2B294A2B2C323932B7C100202832B7C101202232B7C102201C08
S121FBCA32B7C103201632B7C104201032B7C105200A32B7C106200432B7C1077C007E
S11BFBE8ED393644444444BDFCDABDFB7032840FBDFCDABDFB70390120
S121FC000F8E00E0CE00C0048610A7014FA702A703A704A705A706A70786FF97EA97A4
S121FC1EEBCEFC82BDFC8ABDFCC3CEFD628101274FCEFD8281022748CEFDA281052750
S121FC3C41CEFE548104273ACEFE7C81032733CEFEE6810E272CCEFF2B810A2725CE08
S121FC5AFF59810D271ECEFF7581062717CEFF8D81082710CEFFA381092709CEFFC382
S121FC788107270220A1AD00209D5245414459202020A6002734B7C100A601272DB78E
S121FC96C101A6022726B7C102A603271FB7C103A6042718B7C104A6052711B7C105EC
S121FCB4A606270AB7C106A6072703B7C10739B6C0002BFBF6C000C1102601175D2A5C
S121FCD2F58110260297E939810922038B30398B37398DDD97E54848484897E696E50D
S121FCF08DE8B7C1068DCC97E58DDFB7C10796E59BE697E5398DBC97E4484848489713
S121FD0EE696E48DC7B7C1048DAB97E48DBEB7C10596E49BE697E48DBD39BDFC8A9656
S121FD2CE544444444BDFCDAB7C10696E5840FBDFCDAB7C107BDFCC3810C260D8601CC
S121FD4AB7C127B7C117BDFCE486803996E504A7033904A60397E5398DF8CEFD6EBD4E
S121FD68FD28BDFD5639414343413D3D202096E504A7023904A60297E5398DF8CEFD37
S121FD868EBDFD28BDFD7639414343423D3D202096E504A7013904A60197E5398DF87A
S121FDA48D07BDFD2BBDFD963996E5442404C6632002C65FF7C105442404C65620027D
S121FDC2C65FF7C104442404C66F2002C65FF7C103442404C64E2002C65FF7C10244D6
S121FDE02404C6692002C65FF7C101442404C6682002C65FF7C10039BDFC8A96E444D7
S121FDFE444444BDFCDAB7C10496E4840FBDFCDAB7C10596E544444444BDFCDAB7C155
S121FE1C0696E5840FBDFCDAB7C107BDFCC3810C26118601B7C147B7C137B7C127B713
S121FE3AC117BDFD05390496E4A70496E5A7053904A60497E4A60597E5398DF4CEFE77
S121FE5860BDFDF8BDFE403969723D3D202020200496E4A70696E5A7073904A6069799
S121FE76E4A60797E5398DF4CEFE88BDFDF8BDFE683950433D3D2020202096E54444B1
S121FE944444BDFCDA8A80B7C10696E5840FBDFCDA8A80B7C1073996E744444444BDFC
S121FEB2FCDAB7C10096E7840FBDFCDAB7C10196E844444444BDFCDAB7C10296E88427
S121FED00FBDFCDAB7C103863DB7C104B7C105DEE7A60097E539CEFF23BDFC8ABDFD2A
S121FEEE05DEE4DFE78DB6BDFD2B810F271C810B270D81802608DEE796E5A70020E78D
S121FF0C39DEE709DFE7A60097E520DBDEE708DFE7A60097E520D0414444525F5F5F0C
S121FF2A5F7F00E9CEFF23BDFC8ABDFD05DEE4DFE7A60097E5BDFEABBDFE90BDFCE404
S121FF48DEE796E5A70008DFE77D00E9260220E339CEFF6DBDFC8ABDFD05BDFE68CEEB
S121FF66FFF0BDFC8A053920444F205F5F5F5FCEFF85BDFC8A04DFE7BDFEABBDFCC379
S121FF8439202020203D3D535002BDFE72DEE4DFE7BDFEABBDFE90BDFCC3810827EB06
S121FFA239CEFFE8BDFC8ADEEA0827050996ECA700BDFD05DEE4DFEAA60097EC8615D0
S121FFC0A70039CEFFF0BDFC8A04EE06099CEA2702053996ECA7000496EAA70696EB76
S121FFDEA70786FF97EA97EB053942522E205F5F5F5F5553455220202020010301006B
S107FFFC0106FC00FA
S9
